:1000000010C015C015C013C012C011C010C00FC061
:100010000EC00DC00CC00BC00AC009C008C007C08C
:1000200006C011241FBECFEDCDBF32D071C0E8CFC6
:100030001F920F920FB60F9211248F939F93C99B1B
:1000400004C09BB384E089278BBB9F918F910F9055
:100050000FBE0F901F90189583B7826083BF80B743
:10006000836080BF80B7806280BF089587B1836856
:1000700087B986B1836886B90895379A369A3699D2
:10008000FECF349A84B125B1379890E0922B089531
:10009000D79AECDFE1DFD29A919A83E085BF8BB7E4
:1000A00080618BBF789485B7877E806185BF9BB365
:1000B00084E089278BBB2FE38DE093E021508040C3
:1000C0009040E1F700C00000D8DF0297B0F080E078
:1000D0008CBFE7E8F3E13197F1F700C000008F5FD4
:1000E0008F3FB1F78FEF90E08CBFE7E8F3E13197F6
:1000F000F1F700C000000197B8F788952FEF84E36F
:100100009CE0215080409040E1F700C00000DCCF2F
:04011000F894FFCF91
:00000001FF
